{
  "_format": "hh-sol-artifact-1",
  "contractName": "CampaignFactory",
  "sourceName": "contracts/CampaignFactory.sol",
  "abi": [
    {
      "inputs": [
        {
          "internalType": "string",
          "name": "_name",
          "type": "string"
        },
        {
          "internalType": "string",
          "name": "_description",
          "type": "string"
        },
        {
          "internalType": "string",
          "name": "_pic",
          "type": "string"
        },
        {
          "internalType": "uint256",
          "name": "_goal",
          "type": "uint256"
        },
        {
          "internalType": "uint256",
          "name": "_durationindays",
          "type": "uint256"
        },
        {
          "internalType": "string",
          "name": "_genres",
          "type": "string"
        }
      ],
      "name": "createCampaign",
      "outputs": [],
      "stateMutability": "nonpayable",
      "type": "function"
    },
    {
      "inputs": [],
      "name": "getAllCampaigns",
      "outputs": [
        {
          "internalType": "contract Campaign[]",
          "name": "",
          "type": "address[]"
        }
      ],
      "stateMutability": "view",
      "type": "function"
    },
    {
      "inputs": [],
      "name": "getMyCampaigns",
      "outputs": [
        {
          "internalType": "contract Campaign[]",
          "name": "",
          "type": "address[]"
        }
      ],
      "stateMutability": "view",
      "type": "function"
    }
  ],
  "bytecode": "0x6080604052348015600f57600080fd5b50614b9e8061001f6000396000f3fe608060405234801561001057600080fd5b50600436106100415760003560e01c80636e5add481461004657806382bea0ca1461006257806386cdf60414610080575b600080fd5b610060600480360381019061005b91906104e4565b61009e565b005b61006a6101ee565b604051610077919061070f565b60405180910390f35b6100886102b9565b604051610095919061070f565b60405180910390f35b6000868686868686336040516100b390610347565b6100c397969594939291906107e0565b604051809103906000f0801580156100df573d6000803e3d6000fd5b5090506000819080600181540180825580915050600190039060005260206000200160009091909190916101000a81548173ffffffffffffffffffffffffffffffffffffffff021916908373ffffffffffffffffffffffffffffffffffffffff160217905550600160003373ffffffffffffffffffffffffffffffffffffffff1673ffffffffffffffffffffffffffffffffffffffff168152602001908152602001600020819080600181540180825580915050600190039060005260206000200160009091909190916101000a81548173ffffffffffffffffffffffffffffffffffffffff021916908373ffffffffffffffffffffffffffffffffffffffff16021790555050505050505050565b6060600160003373ffffffffffffffffffffffffffffffffffffffff1673ffffffffffffffffffffffffffffffffffffffff1681526020019081526020016000208054806020026020016040519081016040528092919081815260200182805480156102af57602002820191906000526020600020905b8160009054906101000a900473ffffffffffffffffffffffffffffffffffffffff1673ffffffffffffffffffffffffffffffffffffffff1681526020019060010190808311610265575b5050505050905090565b6060600080548060200260200160405190810160405280929190818152602001828054801561033d57602002820191906000526020600020905b8160009054906101000a900473ffffffffffffffffffffffffffffffffffffffff1673ffffffffffffffffffffffffffffffffffffffff16815260200190600101908083116102f3575b5050505050905090565b6142fd8061086c83390190565b6000604051905090565b600080fd5b600080fd5b600080fd5b600080fd5b6000601f19601f8301169050919050565b7f4e487b7100000000000000000000000000000000000000000000000000000000600052604160045260246000fd5b6103bb82610372565b810181811067ffffffffffffffff821117156103da576103d9610383565b5b80604052505050565b60006103ed610354565b90506103f982826103b2565b919050565b600067ffffffffffffffff82111561041957610418610383565b5b61042282610372565b9050602081019050919050565b82818337600083830152505050565b600061045161044c846103fe565b6103e3565b90508281526020810184848401111561046d5761046c61036d565b5b61047884828561042f565b509392505050565b600082601f83011261049557610494610368565b5b81356104a584826020860161043e565b91505092915050565b6000819050919050565b6104c1816104ae565b81146104cc57600080fd5b50565b6000813590506104de816104b8565b92915050565b60008060008060008060c087890312156105015761050061035e565b5b600087013567ffffffffffffffff81111561051f5761051e610363565b5b61052b89828a01610480565b965050602087013567ffffffffffffffff81111561054c5761054b610363565b5b61055889828a01610480565b955050604087013567ffffffffffffffff81111561057957610578610363565b5b61058589828a01610480565b945050606061059689828a016104cf565b93505060806105a789828a016104cf565b92505060a087013567ffffffffffffffff8111156105c8576105c7610363565b5b6105d489828a01610480565b9150509295509295509295565b600081519050919050565b600082825260208201905092915050565b6000819050602082019050919050565b600073ffffffffffffffffffffffffffffffffffffffff82169050919050565b6000819050919050565b600061065261064d6106488461060d565b61062d565b61060d565b9050919050565b600061066482610637565b9050919050565b600061067682610659565b9050919050565b6106868161066b565b82525050565b6000610698838361067d565b60208301905092915050565b6000602082019050919050565b60006106bc826105e1565b6106c681856105ec565b93506106d1836105fd565b8060005b838110156107025781516106e9888261068c565b97506106f4836106a4565b9250506001810190506106d5565b5085935050505092915050565b6000602082019050818103600083015261072981846106b1565b905092915050565b600081519050919050565b600082825260208201905092915050565b60005b8381101561076b578082015181840152602081019050610750565b60008484015250505050565b600061078282610731565b61078c818561073c565b935061079c81856020860161074d565b6107a581610372565b840191505092915050565b6107b9816104ae565b82525050565b60006107ca8261060d565b9050919050565b6107da816107bf565b82525050565b600060e08201905081810360008301526107fa818a610777565b9050818103602083015261080e8189610777565b905081810360408301526108228188610777565b905061083160608301876107b0565b61083e60808301866107b0565b81810360a08301526108508185610777565b905061085f60c08301846107d1565b9897505050505050505056fe608060405234801561001057600080fd5b506040516142fd3803806142fd8339818101604052810190610032919061036a565b80600960006101000a81548173ffffffffffffffffffffffffffffffffffffffff021916908373ffffffffffffffffffffffffffffffffffffffff16021790555086600190816100829190610693565b5085600290816100929190610693565b5060008551116100d7576040518060400160405280600781526020017f64656661756c74000000000000000000000000000000000000000000000000008152506100d9565b845b600390816100e79190610693565b50836000819055506000600481905550426006819055508260065461010c9190610794565b6005819055506000600d60006101000a81548160ff02191690836003811115610138576101376107c8565b5b0217905550600060078190555081600890816101549190610693565b50505050505050506107f7565b6000604051905090565b600080fd5b600080fd5b600080fd5b600080fd5b6000601f19601f8301169050919050565b7f4e487b7100000000000000000000000000000000000000000000000000000000600052604160045260246000fd5b6101c88261017f565b810181811067ffffffffffffffff821117156101e7576101e6610190565b5b80604052505050565b60006101fa610161565b905061020682826101bf565b919050565b600067ffffffffffffffff82111561022657610225610190565b5b61022f8261017f565b9050602081019050919050565b60005b8381101561025a57808201518184015260208101905061023f565b60008484015250505050565b60006102796102748461020b565b6101f0565b9050828152602081018484840111156102955761029461017a565b5b6102a084828561023c565b509392505050565b600082601f8301126102bd576102bc610175565b5b81516102cd848260208601610266565b91505092915050565b6000819050919050565b6102e9816102d6565b81146102f457600080fd5b50565b600081519050610306816102e0565b92915050565b600073ffffffffffffffffffffffffffffffffffffffff82169050919050565b60006103378261030c565b9050919050565b6103478161032c565b811461035257600080fd5b50565b6000815190506103648161033e565b92915050565b600080600080600080600060e0888a0312156103895761038861016b565b5b600088015167ffffffffffffffff8111156103a7576103a6610170565b5b6103b38a828b016102a8565b975050602088015167ffffffffffffffff8111156103d4576103d3610170565b5b6103e08a828b016102a8565b965050604088015167ffffffffffffffff81111561040157610400610170565b5b61040d8a828b016102a8565b955050606061041e8a828b016102f7565b945050608061042f8a828b016102f7565b93505060a088015167ffffffffffffffff8111156104505761044f610170565b5b61045c8a828b016102a8565b92505060c061046d8a828b01610355565b91505092959891949750929550565b600081519050919050565b7f4e487b7100000000000000000000000000000000000000000000000000000000600052602260045260246000fd5b600060028204905060018216806104ce57607f821691505b6020821081036104e1576104e0610487565b5b50919050565b60008190508160005260206000209050919050565b60006020601f8301049050919050565b600082821b905092915050565b6000600883026105497fffffffffffffffffffffffffffffffffffffffffffffffffffffffffffffffff8261050c565b610553868361050c565b95508019841693508086168417925050509392505050565b6000819050919050565b600061059061058b610586846102d6565b61056b565b6102d6565b9050919050565b6000819050919050565b6105aa83610575565b6105be6105b682610597565b848454610519565b825550505050565b600090565b6105d36105c6565b6105de8184846105a1565b505050565b5b81811015610602576105f76000826105cb565b6001810190506105e4565b5050565b601f82111561064757610618816104e7565b610621846104fc565b81016020851015610630578190505b61064461063c856104fc565b8301826105e3565b50505b505050565b600082821c905092915050565b600061066a6000198460080261064c565b1980831691505092915050565b60006106838383610659565b9150826002028217905092915050565b61069c8261047c565b67ffffffffffffffff8111156106b5576106b4610190565b5b6106bf82546104b6565b6106ca828285610606565b600060209050601f8311600181146106fd57600084156106eb578287015190505b6106f58582610677565b86555061075d565b601f19841661070b866104e7565b60005b828110156107335784890151825560018201915060208501945060208101905061070e565b86831015610750578489015161074c601f891682610659565b8355505b6001600288020188555050505b505050505050565b7f4e487b7100000000000000000000000000000000000000000000000000000000600052601160045260246000fd5b600061079f826102d6565b91506107aa836102d6565b92508282019050808211156107c2576107c1610765565b5b92915050565b7f4e487b7100000000000000000000000000000000000000000000000000000000600052602160045260246000fd5b613af7806108066000396000f3fe6080604052600436106100f35760003560e01c80635224d7e21161008a57806395b648be1161005957806395b648be14610343578063a29481a414610377578063af157c19146103a0578063d9d29726146103cb576100f3565b80635224d7e21461027f578063590e1ae3146102c157806381d12c58146102d85780638da5cb5b14610318576100f3565b806320981ac4116100c657806320981ac4146101c057806323024408146101e95780633cb5d1001461020557806342e94c9014610242576100f3565b806309792e7d146100f857806312065fe01461012a578063186a46081461015557806319a32cb914610183575b600080fd5b34801561010457600080fd5b5061010d6103f4565b60405161012198979695949392919061268a565b60405180910390f35b34801561013657600080fd5b5061013f61067f565b60405161014c9190612724565b60405180910390f35b34801561016157600080fd5b5061016a610687565b60405161017a9493929190612909565b60405180910390f35b34801561018f57600080fd5b506101aa60048036038101906101a59190612a08565b610a3e565b6040516101b79190612a64565b60405180910390f35b3480156101cc57600080fd5b506101e760048036038101906101e29190612aab565b610b11565b005b61020360048036038101906101fe9190612afe565b610e61565b005b34801561021157600080fd5b5061022c60048036038101906102279190612b2b565b6110b8565b6040516102399190612b67565b60405180910390f35b34801561024e57600080fd5b5061026960048036038101906102649190612afe565b6110f7565b6040516102769190612724565b60405180910390f35b34801561028b57600080fd5b506102a660048036038101906102a19190612b2b565b61110f565b6040516102b896959493929190612c40565b60405180910390f35b3480156102cd57600080fd5b506102d661144b565b005b3480156102e457600080fd5b506102ff60048036038101906102fa9190612b2b565b611771565b60405161030f9493929190612d2d565b60405180910390f35b34801561032457600080fd5b5061032d611846565b60405161033a9190612d9a565b60405180910390f35b34801561034f57600080fd5b5061035861186c565b60405161036e9a99989796959493929190612db5565b60405180910390f35b34801561038357600080fd5b5061039e60048036038101906103999190612fa2565b611b22565b005b3480156103ac57600080fd5b506103b5611e41565b6040516103c29190613011565b60405180910390f35b3480156103d757600080fd5b506103f260048036038101906103ed9190613033565b611ecf565b005b6060806000606060008060006060600160026000546003600d60009054906101000a900460ff16600381111561042d5761042c612cb6565b5b60055460045460088780546104419061308f565b80601f016020809104026020016040519081016040528092919081815260200182805461046d9061308f565b80156104ba5780601f1061048f576101008083540402835291602001916104ba565b820191906000526020600020905b81548152906001019060200180831161049d57829003601f168201915b505050505097508680546104cd9061308f565b80601f01602080910402602001604051908101604052809291908181526020018280546104f99061308f565b80156105465780601f1061051b57610100808354040283529160200191610546565b820191906000526020600020905b81548152906001019060200180831161052957829003601f168201915b505050505096508480546105599061308f565b80601f01602080910402602001604051908101604052809291908181526020018280546105859061308f565b80156105d25780601f106105a7576101008083540402835291602001916105d2565b820191906000526020600020905b8154815290600101906020018083116105b557829003601f168201915b505050505094508080546105e59061308f565b80601f01602080910402602001604051908101604052809291908181526020018280546106119061308f565b801561065e5780601f106106335761010080835404028352916020019161065e565b820191906000526020600020905b81548152906001019060200180831161064157829003601f168201915b50505050509050975097509750975097509750975097509091929394959697565b600047905090565b6060806060806000600c8054905067ffffffffffffffff8111156106ae576106ad612e77565b5b6040519080825280602002602001820160405280156106dc5781602001602082028036833780820191505090505b5090506000600c8054905067ffffffffffffffff811115610700576106ff612e77565b5b60405190808252806020026020018201604052801561072e5781602001602082028036833780820191505090505b5090506000600c8054905067ffffffffffffffff81111561075257610751612e77565b5b60405190808252806020026020018201604052801561078557816020015b60608152602001906001900390816107705790505b5090506000600a8054905067ffffffffffffffff8111156107a9576107a8612e77565b5b6040519080825280602002602001820160405280156107d75781602001602082028036833780820191505090505b50905060005b600a8054905081101561089457600b6000600a8381548110610802576108016130c0565b5b9060005260206000200160009054906101000a900473ffffffffffffffffffffffffffffffffffffffff1673ffffffffffffffffffffffffffffffffffffffff1673ffffffffffffffffffffffffffffffffffffffff1681526020019081526020016000205482828151811061087b5761087a6130c0565b5b60200260200101818152505080806001019150506107dd565b5060005b600c80549050811015610a2757600c81815481106108b9576108b86130c0565b5b906000526020600020906005020160010160009054906101000a900460ff1660028111156108ea576108e9612cb6565b5b8582815181106108fd576108fc6130c0565b5b602002602001018181525050600c818154811061091d5761091c6130c0565b5b906000526020600020906005020160030154848281518110610942576109416130c0565b5b602002602001018181525050600c8181548110610962576109616130c0565b5b9060005260206000209060050201600401805461097e9061308f565b80601f01602080910402602001604051908101604052809291908181526020018280546109aa9061308f565b80156109f75780601f106109cc576101008083540402835291602001916109f7565b820191906000526020600020905b8154815290600101906020018083116109da57829003601f168201915b5050505050838281518110610a0f57610a0e6130c0565b5b60200260200101819052508080600101915050610898565b508084848497509750975097505050505090919293565b6000600c805490508310610a87576040517f08c379a0000000000000000000000000000000000000000000000000000000008152600401610a7e9061313b565b60405180910390fd5b600c8381548110610a9b57610a9a6130c0565b5b906000526020600020906005020160020160008373ffffffffffffffffffffffffffffffffffffffff1673ffffffffffffffffffffffffffffffffffffffff16815260200190815260200160002060009054906101000a900460ff166002811115610b0957610b08612cb6565b5b905092915050565b600280811115610b2457610b23612cb6565b5b600c8381548110610b3857610b376130c0565b5b906000526020600020906005020160010160009054906101000a900460ff166002811115610b6957610b68612cb6565b5b14610ba9576040517f08c379a0000000000000000000000000000000000000000000000000000000008152600401610ba0906131a7565b60405180910390fd5b600280811115610bbc57610bbb612cb6565b5b600c8381548110610bd057610bcf6130c0565b5b906000526020600020906005020160020160008373ffffffffffffffffffffffffffffffffffffffff1673ffffffffffffffffffffffffffffffffffffffff16815260200190815260200160002060009054906101000a900460ff166002811115610c3e57610c3d612cb6565b5b14610c7e576040517f08c379a0000000000000000000000000000000000000000000000000000000008152600401610c7590613213565b60405180910390fd5b6000600b60008373ffffffffffffffffffffffffffffffffffffffff1673ffffffffffffffffffffffffffffffffffffffff1681526020019081526020016000205411610d00576040517f08c379a0000000000000000000000000000000000000000000000000000000008152600401610cf79061327f565b60405180910390fd5b8260ff166002811115610d1657610d15612cb6565b5b600c8381548110610d2a57610d296130c0565b5b906000526020600020906005020160020160008373ffffffffffffffffffffffffffffffffffffffff1673ffffffffffffffffffffffffffffffffffffffff16815260200190815260200160002060006101000a81548160ff02191690836002811115610d9a57610d99612cb6565b5b0217905550610da882611f43565b600c8381548110610dbc57610dbb6130c0565b5b906000526020600020906005020160010160006101000a81548160ff02191690836002811115610def57610dee612cb6565b5b021790555060006002811115610e0857610e07612cb6565b5b600c8381548110610e1c57610e1b6130c0565b5b906000526020600020906005020160010160009054906101000a900460ff166002811115610e4d57610e4c612cb6565b5b03610e5c57610e5b82612160565b5b505050565b60006003811115610e7557610e74612cb6565b5b600d60009054906101000a900460ff166003811115610e9757610e96612cb6565b5b14610ed7576040517f08c379a0000000000000000000000000000000000000000000000000000000008152600401610ece90613311565b60405180910390fd5b600454600054610ee79190613360565b341115610f02600454600054610efd9190613360565b6121f1565b604051602001610f129190613442565b60405160208183030381529060405290610f62576040517f08c379a0000000000000000000000000000000000000000000000000000000008152600401610f599190613464565b60405180910390fd5b5060003403610fa6576040517f08c379a0000000000000000000000000000000000000000000000000000000008152600401610f9d906134d2565b60405180910390fd5b60001515610fb3826122bf565b15150361101e57600a819080600181540180825580915050600190039060005260206000200160009091909190916101000a81548173ffffffffffffffffffffffffffffffffffffffff021916908373ffffffffffffffffffffffffffffffffffffffff1602179055505b34600b60008373ffffffffffffffffffffffffffffffffffffffff1673ffffffffffffffffffffffffffffffffffffffff168152602001908152602001600020600082825461106d91906134f2565b92505081905550346004600082825461108691906134f2565b92505081905550600054600454036110b5576110b4600160038111156110af576110ae612cb6565b5b611ecf565b5b50565b600a81815481106110c857600080fd5b906000526020600020016000915054906101000a900473ffffffffffffffffffffffffffffffffffffffff1681565b600b6020528060005260406000206000915090505481565b606080600080600060606000600a8054905067ffffffffffffffff81111561113a57611139612e77565b5b6040519080825280602002602001820160405280156111685781602001602082028036833780820191505090505b50905060005b600a8054905081101561126757600c898154811061118f5761118e6130c0565b5b90600052602060002090600502016002016000600a83815481106111b6576111b56130c0565b5b9060005260206000200160009054906101000a900473ffffffffffffffffffffffffffffffffffffffff1673ffffffffffffffffffffffffffffffffffffffff1673ffffffffffffffffffffffffffffffffffffffff16815260200190815260200160002060009054906101000a900460ff16600281111561123b5761123a612cb6565b5b82828151811061124e5761124d6130c0565b5b602002602001018181525050808060010191505061116e565b50600a81600c8a8154811061127f5761127e6130c0565b5b906000526020600020906005020160030154600c8b815481106112a5576112a46130c0565b5b906000526020600020906005020160000154600c8c815481106112cb576112ca6130c0565b5b906000526020600020906005020160010160009054906101000a900460ff1660028111156112fc576112fb612cb6565b5b600c8d815481106113105761130f6130c0565b5b9060005260206000209060050201600401858054806020026020016040519081016040528092919081815260200182805480156113a257602002820191906000526020600020905b8160009054906101000a900473ffffffffffffffffffffffffffffffffffffffff1673ffffffffffffffffffffffffffffffffffffffff1681526020019060010190808311611358575b505050505095508080546113b59061308f565b80601f01602080910402602001604051908101604052809291908181526020018280546113e19061308f565b801561142e5780601f106114035761010080835404028352916020019161142e565b820191906000526020600020905b81548152906001019060200180831161141157829003601f168201915b505050505090509650965096509650965096505091939550919395565b6000600a80549050905060008167ffffffffffffffff81111561147157611470612e77565b5b60405190808252806020026020018201604052801561149f5781602001602082028036833780820191505090505b50905060008267ffffffffffffffff8111156114be576114bd612e77565b5b6040519080825280602002602001820160405280156114ec5781602001602082028036833780820191505090505b50905060005b8381101561164857600a818154811061150e5761150d6130c0565b5b9060005260206000200160009054906101000a900473ffffffffffffffffffffffffffffffffffffffff1683828151811061154c5761154b6130c0565b5b602002602001019073ffffffffffffffffffffffffffffffffffffffff16908173ffffffffffffffffffffffffffffffffffffffff168152505060045447600b6000600a85815481106115a2576115a16130c0565b5b9060005260206000200160009054906101000a900473ffffffffffffffffffffffffffffffffffffffff1673ffffffffffffffffffffffffffffffffffffffff1673ffffffffffffffffffffffffffffffffffffffff168152602001908152602001600020546116129190613526565b61161c9190613597565b82828151811061162f5761162e6130c0565b5b60200260200101818152505080806001019150506114f2565b5060005b8381101561175d576000828281518110611669576116686130c0565b5b602002602001015111156117505782818151811061168a576116896130c0565b5b602002602001015173ffffffffffffffffffffffffffffffffffffffff166108fc8383815181106116be576116bd6130c0565b5b60200260200101519081150290604051600060405180830381858888f193505050501580156116f1573d6000803e3d6000fd5b50600b6000848381518110611709576117086130c0565b5b602002602001015173ffffffffffffffffffffffffffffffffffffffff1673ffffffffffffffffffffffffffffffffffffffff168152602001908152602001600020600090555b808060010191505061164c565b50600a600061176c9190612599565b505050565b600c818154811061178157600080fd5b90600052602060002090600502016000915090508060000154908060010160009054906101000a900460ff16908060030154908060040180546117c39061308f565b80601f01602080910402602001604051908101604052809291908181526020018280546117ef9061308f565b801561183c5780601f106118115761010080835404028352916020019161183c565b820191906000526020600020905b81548152906001019060200180831161181f57829003601f168201915b5050505050905084565b600960009054906101000a900473ffffffffffffffffffffffffffffffffffffffff1681565b6060806060600080600080600060606000600160026003600054600d60009054906101000a900460ff1660038111156118a8576118a7612cb6565b5b600554600454600654600a600960009054906101000a900473ffffffffffffffffffffffffffffffffffffffff168980546118e29061308f565b80601f016020809104026020016040519081016040528092919081815260200182805461190e9061308f565b801561195b5780601f106119305761010080835404028352916020019161195b565b820191906000526020600020905b81548152906001019060200180831161193e57829003601f168201915b5050505050995088805461196e9061308f565b80601f016020809104026020016040519081016040528092919081815260200182805461199a9061308f565b80156119e75780601f106119bc576101008083540402835291602001916119e7565b820191906000526020600020905b8154815290600101906020018083116119ca57829003601f168201915b505050505098508780546119fa9061308f565b80601f0160208091040260200160405190810160405280929190818152602001828054611a269061308f565b8015611a735780601f10611a4857610100808354040283529160200191611a73565b820191906000526020600020905b815481529060010190602001808311611a5657829003601f168201915b5050505050975081805480602002602001604051908101604052809291908181526020018280548015611afb57602002820191906000526020600020905b8160009054906101000a900473ffffffffffffffffffffffffffffffffffffffff1673ffffffffffffffffffffffffffffffffffffffff1681526020019060010190808311611ab1575b50505050509150995099509950995099509950995099509950995090919293949596979899565b8247811115611b66576040517f08c379a0000000000000000000000000000000000000000000000000000000008152600401611b5d90613614565b60405180910390fd5b60005b600754811015611c1857600280811115611b8657611b85612cb6565b5b600c8281548110611b9a57611b996130c0565b5b906000526020600020906005020160010160009054906101000a900460ff166002811115611bcb57611bca612cb6565b5b03611c0b576040517f08c379a0000000000000000000000000000000000000000000000000000000008152600401611c02906136a6565b60405180910390fd5b8080600101915050611b69565b50600960009054906101000a900473ffffffffffffffffffffffffffffffffffffffff1673ffffffffffffffffffffffffffffffffffffffff168273ffffffffffffffffffffffffffffffffffffffff1614611ca9576040517f08c379a0000000000000000000000000000000000000000000000000000000008152600401611ca090613712565b60405180910390fd5b6000600c600181600181540180825580915050039060005260206000209060050201905060076000815480929190611ce090613732565b9190505550611d236040518060400160405280600281526020017f6868000000000000000000000000000000000000000000000000000000000000815250612367565b42816000018190555060028160010160006101000a81548160ff02191690836002811115611d5457611d53612cb6565b5b021790555084816003018190555083816004019081611d739190613926565b5060005b600a80549050811015611e39576002826002016000600a8481548110611da057611d9f6130c0565b5b9060005260206000200160009054906101000a900473ffffffffffffffffffffffffffffffffffffffff1673ffffffffffffffffffffffffffffffffffffffff1673ffffffffffffffffffffffffffffffffffffffff16815260200190815260200160002060006101000a81548160ff02191690836002811115611e2757611e26612cb6565b5b02179055508080600101915050611d77565b505050505050565b6060600a805480602002602001604051908101604052809291908181526020018280548015611ec557602002820191906000526020600020905b8160009054906101000a900473ffffffffffffffffffffffffffffffffffffffff1673ffffffffffffffffffffffffffffffffffffffff1681526020019060010190808311611e7b575b5050505050905090565b60008160ff166003811115611ee757611ee6612cb6565b5b9050600380811115611efc57611efb612cb6565b5b816003811115611f0f57611f0e612cb6565b5b03611f3f5780600d60006101000a81548160ff02191690836003811115611f3957611f38612cb6565b5b02179055505b5050565b600080600090506000805b600a8054905081101561214757600280811115611f6e57611f6d612cb6565b5b600c8681548110611f8257611f816130c0565b5b90600052602060002090600502016002016000600a8481548110611fa957611fa86130c0565b5b9060005260206000200160009054906101000a900473ffffffffffffffffffffffffffffffffffffffff1673ffffffffffffffffffffffffffffffffffffffff1673ffffffffffffffffffffffffffffffffffffffff16815260200190815260200160002060009054906101000a900460ff16600281111561202e5761202d612cb6565b5b0361203f576002935050505061215b565b6000600281111561205357612052612cb6565b5b600c8681548110612067576120666130c0565b5b90600052602060002090600502016002016000600a848154811061208e5761208d6130c0565b5b9060005260206000200160009054906101000a900473ffffffffffffffffffffffffffffffffffffffff1673ffffffffffffffffffffffffffffffffffffffff1673ffffffffffffffffffffffffffffffffffffffff16815260200190815260200160002060009054906101000a900460ff16600281111561211357612112612cb6565b5b0361212b57818061212390613a02565b92505061213a565b818061213690613a4a565b9250505b8080600101915050611f4e565b506000811361215557600191505b81925050505b919050565b600960009054906101000a900473ffffffffffffffffffffffffffffffffffffffff1673ffffffffffffffffffffffffffffffffffffffff166108fc600c83815481106121b0576121af6130c0565b5b9060005260206000209060050201600301549081150290604051600060405180830381858888f193505050501580156121ed573d6000803e3d6000fd5b5050565b60606000600161220084612400565b01905060008167ffffffffffffffff81111561221f5761221e612e77565b5b6040519080825280601f01601f1916602001820160405280156122515781602001600182028036833780820191505090505b509050600082602001820190505b6001156122b4578080600190039150507f3031323334353637383961626364656600000000000000000000000000000000600a86061a8153600a85816122a8576122a7613568565b5b0494506000850361225f575b819350505050919050565b6000806000905060005b600a8054905081101561235d578373ffffffffffffffffffffffffffffffffffffffff16600a8281548110612301576123006130c0565b5b9060005260206000200160009054906101000a900473ffffffffffffffffffffffffffffffffffffffff1673ffffffffffffffffffffffffffffffffffffffff1603612350576001915061235d565b80806001019150506122c9565b5080915050919050565b6123fd8160405160240161237b9190613464565b6040516020818303038152906040527f41304fac000000000000000000000000000000000000000000000000000000007bffffffffffffffffffffffffffffffffffffffffffffffffffffffff19166020820180517bffffffffffffffffffffffffffffffffffffffffffffffffffffffff8381831617835250505050612553565b50565b600080600090507a184f03e93ff9f4daa797ed6e38ed64bf6a1f010000000000000000831061245e577a184f03e93ff9f4daa797ed6e38ed64bf6a1f010000000000000000838161245457612453613568565b5b0492506040810190505b6d04ee2d6d415b85acef8100000000831061249b576d04ee2d6d415b85acef8100000000838161249157612490613568565b5b0492506020810190505b662386f26fc1000083106124ca57662386f26fc1000083816124c0576124bf613568565b5b0492506010810190505b6305f5e10083106124f3576305f5e10083816124e9576124e8613568565b5b0492506008810190505b612710831061251857612710838161250e5761250d613568565b5b0492506004810190505b6064831061253b576064838161253157612530613568565b5b0492506002810190505b600a831061254a576001810190505b80915050919050565b61256a8161256261256d61258e565b63ffffffff16565b50565b60006a636f6e736f6c652e6c6f679050600080835160208501845afa505050565b6125ba819050919050565b50805460008255906000526020600020908101906125b791906125c4565b50565b6125c2613a92565b565b5b808211156125dd5760008160009055506001016125c5565b5090565b600081519050919050565b600082825260208201905092915050565b60005b8381101561261b578082015181840152602081019050612600565b60008484015250505050565b6000601f19601f8301169050919050565b6000612643826125e1565b61264d81856125ec565b935061265d8185602086016125fd565b61266681612627565b840191505092915050565b6000819050919050565b61268481612671565b82525050565b60006101008201905081810360008301526126a5818b612638565b905081810360208301526126b9818a612638565b90506126c8604083018961267b565b81810360608301526126da8188612638565b90506126e9608083018761267b565b6126f660a083018661267b565b61270360c083018561267b565b81810360e08301526127158184612638565b90509998505050505050505050565b6000602082019050612739600083018461267b565b92915050565b600081519050919050565b600082825260208201905092915050565b6000819050602082019050919050565b61277481612671565b82525050565b6000612786838361276b565b60208301905092915050565b6000602082019050919050565b60006127aa8261273f565b6127b4818561274a565b93506127bf8361275b565b8060005b838110156127f05781516127d7888261277a565b97506127e283612792565b9250506001810190506127c3565b5085935050505092915050565b600081519050919050565b600082825260208201905092915050565b6000819050602082019050919050565b600082825260208201905092915050565b6000612845826125e1565b61284f8185612829565b935061285f8185602086016125fd565b61286881612627565b840191505092915050565b600061287f838361283a565b905092915050565b6000602082019050919050565b600061289f826127fd565b6128a98185612808565b9350836020820285016128bb85612819565b8060005b858110156128f757848403895281516128d88582612873565b94506128e383612887565b925060208a019950506001810190506128bf565b50829750879550505050505092915050565b60006080820190508181036000830152612923818761279f565b90508181036020830152612937818661279f565b9050818103604083015261294b818561279f565b9050818103606083015261295f8184612894565b905095945050505050565b6000604051905090565b600080fd5b600080fd5b61298781612671565b811461299257600080fd5b50565b6000813590506129a48161297e565b92915050565b600073ffffffffffffffffffffffffffffffffffffffff82169050919050565b60006129d5826129aa565b9050919050565b6129e5816129ca565b81146129f057600080fd5b50565b600081359050612a02816129dc565b92915050565b60008060408385031215612a1f57612a1e612974565b5b6000612a2d85828601612995565b9250506020612a3e858286016129f3565b9150509250929050565b600060ff82169050919050565b612a5e81612a48565b82525050565b6000602082019050612a796000830184612a55565b92915050565b612a8881612a48565b8114612a9357600080fd5b50565b600081359050612aa581612a7f565b92915050565b600080600060608486031215612ac457612ac3612974565b5b6000612ad286828701612a96565b9350506020612ae386828701612995565b9250506040612af4868287016129f3565b9150509250925092565b600060208284031215612b1457612b13612974565b5b6000612b22848285016129f3565b91505092915050565b600060208284031215612b4157612b40612974565b5b6000612b4f84828501612995565b91505092915050565b612b61816129ca565b82525050565b6000602082019050612b7c6000830184612b58565b92915050565b600081519050919050565b600082825260208201905092915050565b6000819050602082019050919050565b612bb7816129ca565b82525050565b6000612bc98383612bae565b60208301905092915050565b6000602082019050919050565b6000612bed82612b82565b612bf78185612b8d565b9350612c0283612b9e565b8060005b83811015612c33578151612c1a8882612bbd565b9750612c2583612bd5565b925050600181019050612c06565b5085935050505092915050565b600060c0820190508181036000830152612c5a8189612be2565b90508181036020830152612c6e818861279f565b9050612c7d604083018761267b565b612c8a606083018661267b565b612c97608083018561267b565b81810360a0830152612ca98184612638565b9050979650505050505050565b7f4e487b7100000000000000000000000000000000000000000000000000000000600052602160045260246000fd5b60038110612cf657612cf5612cb6565b5b50565b6000819050612d0782612ce5565b919050565b6000612d1782612cf9565b9050919050565b612d2781612d0c565b82525050565b6000608082019050612d42600083018761267b565b612d4f6020830186612d1e565b612d5c604083018561267b565b8181036060830152612d6e8184612638565b905095945050505050565b6000612d84826129aa565b9050919050565b612d9481612d79565b82525050565b6000602082019050612daf6000830184612d8b565b92915050565b6000610140820190508181036000830152612dd0818d612638565b90508181036020830152612de4818c612638565b90508181036040830152612df8818b612638565b9050612e07606083018a61267b565b612e14608083018961267b565b612e2160a083018861267b565b612e2e60c083018761267b565b612e3b60e083018661267b565b818103610100830152612e4e8185612be2565b9050612e5e610120830184612b58565b9b9a5050505050505050505050565b600080fd5b600080fd5b7f4e487b7100000000000000000000000000000000000000000000000000000000600052604160045260246000fd5b612eaf82612627565b810181811067ffffffffffffffff82111715612ece57612ecd612e77565b5b80604052505050565b6000612ee161296a565b9050612eed8282612ea6565b919050565b600067ffffffffffffffff821115612f0d57612f0c612e77565b5b612f1682612627565b9050602081019050919050565b82818337600083830152505050565b6000612f45612f4084612ef2565b612ed7565b905082815260208101848484011115612f6157612f60612e72565b5b612f6c848285612f23565b509392505050565b600082601f830112612f8957612f88612e6d565b5b8135612f99848260208601612f32565b91505092915050565b600080600060608486031215612fbb57612fba612974565b5b6000612fc986828701612995565b935050602084013567ffffffffffffffff811115612fea57612fe9612979565b5b612ff686828701612f74565b9250506040613007868287016129f3565b9150509250925092565b6000602082019050818103600083015261302b8184612be2565b905092915050565b60006020828403121561304957613048612974565b5b600061305784828501612a96565b91505092915050565b7f4e487b7100000000000000000000000000000000000000000000000000000000600052602260045260246000fd5b600060028204905060018216806130a757607f821691505b6020821081036130ba576130b9613060565b5b50919050565b7f4e487b7100000000000000000000000000000000000000000000000000000000600052603260045260246000fd5b7f496e76616c6964207265717565737420696e6465780000000000000000000000600082015250565b60006131256015836125ec565b9150613130826130ef565b602082019050919050565b6000602082019050818103600083015261315481613118565b9050919050565b7f566f7465732068617665206265656e20636c6f73656400000000000000000000600082015250565b60006131916016836125ec565b915061319c8261315b565b602082019050919050565b600060208201905081810360008301526131c081613184565b9050919050565b7f416c726561647920766f74656400000000000000000000000000000000000000600082015250565b60006131fd600d836125ec565b9150613208826131c7565b602082019050919050565b6000602082019050818103600083015261322c816131f0565b9050919050565b7f4f6e6c7920636f6e7472696275746f72732063616e20766f7465000000000000600082015250565b6000613269601a836125ec565b915061327482613233565b602082019050919050565b600060208201905081810360008301526132988161325c565b9050919050565b7f546869732063616d706169676e2063616e27742061636365707420646f6e617460008201527f696f6e7300000000000000000000000000000000000000000000000000000000602082015250565b60006132fb6024836125ec565b91506133068261329f565b604082019050919050565b6000602082019050818103600083015261332a816132ee565b9050919050565b7f4e487b7100000000000000000000000000000000000000000000000000000000600052601160045260246000fd5b600061336b82612671565b915061337683612671565b925082820390508181111561338e5761338d613331565b5b92915050565b600081905092915050565b7f446f6e6174696f6e732073686f756c64206265206c657373207468616e206f7260008201527f20657175616c20746f2000000000000000000000000000000000000000000000602082015250565b60006133fb602a83613394565b91506134068261339f565b602a82019050919050565b600061341c826125e1565b6134268185613394565b93506134368185602086016125fd565b80840191505092915050565b600061344d826133ee565b91506134598284613411565b915081905092915050565b6000602082019050818103600083015261347e8184612638565b905092915050565b7f496e76616c696420646f6e6174696f6e00000000000000000000000000000000600082015250565b60006134bc6010836125ec565b91506134c782613486565b602082019050919050565b600060208201905081810360008301526134eb816134af565b9050919050565b60006134fd82612671565b915061350883612671565b92508282019050808211156135205761351f613331565b5b92915050565b600061353182612671565b915061353c83612671565b925082820261354a81612671565b9150828204841483151761356157613560613331565b5b5092915050565b7f4e487b7100000000000000000000000000000000000000000000000000000000600052601260045260246000fd5b60006135a282612671565b91506135ad83612671565b9250826135bd576135bc613568565b5b828204905092915050565b7f4e6f7420656e6f7567682066756e647320617661696c61626c65000000000000600082015250565b60006135fe601a836125ec565b9150613609826135c8565b602082019050919050565b6000602082019050818103600083015261362d816135f1565b9050919050565b7f5468657265206172652070656e64696e67207769746864726177616c2072657160008201527f7565737473000000000000000000000000000000000000000000000000000000602082015250565b60006136906025836125ec565b915061369b82613634565b604082019050919050565b600060208201905081810360008301526136bf81613683565b9050919050565b7f4f6e6c7920617661696c61626c6520666f7220746865206f776e657200000000600082015250565b60006136fc601c836125ec565b9150613707826136c6565b602082019050919050565b6000602082019050818103600083015261372b816136ef565b9050919050565b600061373d82612671565b91507fffffffffffffffffffffffffffffffffffffffffffffffffffffffffffffffff820361376f5761376e613331565b5b600182019050919050565b60008190508160005260206000209050919050565b60006020601f8301049050919050565b600082821b905092915050565b6000600883026137dc7fffffffffffffffffffffffffffffffffffffffffffffffffffffffffffffffff8261379f565b6137e6868361379f565b95508019841693508086168417925050509392505050565b6000819050919050565b600061382361381e61381984612671565b6137fe565b612671565b9050919050565b6000819050919050565b61383d83613808565b6138516138498261382a565b8484546137ac565b825550505050565b600090565b613866613859565b613871818484613834565b505050565b5b818110156138955761388a60008261385e565b600181019050613877565b5050565b601f8211156138da576138ab8161377a565b6138b48461378f565b810160208510156138c3578190505b6138d76138cf8561378f565b830182613876565b50505b505050565b600082821c905092915050565b60006138fd600019846008026138df565b1980831691505092915050565b600061391683836138ec565b9150826002028217905092915050565b61392f826125e1565b67ffffffffffffffff81111561394857613947612e77565b5b613952825461308f565b61395d828285613899565b600060209050601f831160018114613990576000841561397e578287015190505b613988858261390a565b8655506139f0565b601f19841661399e8661377a565b60005b828110156139c6578489015182556001820191506020850194506020810190506139a1565b868310156139e357848901516139df601f8916826138ec565b8355505b6001600288020188555050505b505050505050565b6000819050919050565b6000613a0d826139f8565b91507f7fffffffffffffffffffffffffffffffffffffffffffffffffffffffffffffff8203613a3f57613a3e613331565b5b600182019050919050565b6000613a55826139f8565b91507f80000000000000000000000000000000000000000000000000000000000000008203613a8757613a86613331565b5b600182039050919050565b7f4e487b7100000000000000000000000000000000000000000000000000000000600052605160045260246000fdfea2646970667358221220ea5f8ed3e4a0965edfe18062cc45d2d24c02101343e1b4cd5ec408eb68173bc264736f6c634300081c0033a2646970667358221220dde37bdea114f9c08c630771a8d7403edaaea7ba21391e659e87b93af4b24d1c64736f6c634300081c0033",
  "linkReferences": {},
  "deployedLinkReferences": {}
}