{
  "_format": "hh-sol-artifact-1",
  "contractName": "CampaignFactory",
  "sourceName": "contracts/CampaignFactory.sol",
  "abi": [
    {
      "inputs": [
        {
          "internalType": "string",
          "name": "_name",
          "type": "string"
        },
        {
          "internalType": "string",
          "name": "_description",
          "type": "string"
        },
        {
          "internalType": "string",
          "name": "_pic",
          "type": "string"
        },
        {
          "internalType": "uint256",
          "name": "_goal",
          "type": "uint256"
        },
        {
          "internalType": "uint256",
          "name": "_durationindays",
          "type": "uint256"
        },
        {
          "internalType": "string",
          "name": "_genres",
          "type": "string"
        }
      ],
      "name": "createCampaign",
      "outputs": [],
      "stateMutability": "nonpayable",
      "type": "function"
    },
    {
      "inputs": [],
      "name": "getAllCampaigns",
      "outputs": [
        {
          "internalType": "contract Campaign[]",
          "name": "",
          "type": "address[]"
        }
      ],
      "stateMutability": "view",
      "type": "function"
    },
    {
      "inputs": [],
      "name": "getMyCampaigns",
      "outputs": [
        {
          "internalType": "contract Campaign[]",
          "name": "",
          "type": "address[]"
        }
      ],
      "stateMutability": "view",
      "type": "function"
    }
  ],
  "bytecode": "0x6080604052348015600f57600080fd5b506141658061001f6000396000f3fe608060405234801561001057600080fd5b50600436106100415760003560e01c80636e5add481461004657806382bea0ca1461006257806386cdf60414610080575b600080fd5b610060600480360381019061005b91906104e4565b61009e565b005b61006a6101ee565b604051610077919061070f565b60405180910390f35b6100886102b9565b604051610095919061070f565b60405180910390f35b6000868686868686336040516100b390610347565b6100c397969594939291906107e0565b604051809103906000f0801580156100df573d6000803e3d6000fd5b5090506000819080600181540180825580915050600190039060005260206000200160009091909190916101000a81548173ffffffffffffffffffffffffffffffffffffffff021916908373ffffffffffffffffffffffffffffffffffffffff160217905550600160003373ffffffffffffffffffffffffffffffffffffffff1673ffffffffffffffffffffffffffffffffffffffff168152602001908152602001600020819080600181540180825580915050600190039060005260206000200160009091909190916101000a81548173ffffffffffffffffffffffffffffffffffffffff021916908373ffffffffffffffffffffffffffffffffffffffff16021790555050505050505050565b6060600160003373ffffffffffffffffffffffffffffffffffffffff1673ffffffffffffffffffffffffffffffffffffffff1681526020019081526020016000208054806020026020016040519081016040528092919081815260200182805480156102af57602002820191906000526020600020905b8160009054906101000a900473ffffffffffffffffffffffffffffffffffffffff1673ffffffffffffffffffffffffffffffffffffffff1681526020019060010190808311610265575b5050505050905090565b6060600080548060200260200160405190810160405280929190818152602001828054801561033d57602002820191906000526020600020905b8160009054906101000a900473ffffffffffffffffffffffffffffffffffffffff1673ffffffffffffffffffffffffffffffffffffffff16815260200190600101908083116102f3575b5050505050905090565b6138c48061086c83390190565b6000604051905090565b600080fd5b600080fd5b600080fd5b600080fd5b6000601f19601f8301169050919050565b7f4e487b7100000000000000000000000000000000000000000000000000000000600052604160045260246000fd5b6103bb82610372565b810181811067ffffffffffffffff821117156103da576103d9610383565b5b80604052505050565b60006103ed610354565b90506103f982826103b2565b919050565b600067ffffffffffffffff82111561041957610418610383565b5b61042282610372565b9050602081019050919050565b82818337600083830152505050565b600061045161044c846103fe565b6103e3565b90508281526020810184848401111561046d5761046c61036d565b5b61047884828561042f565b509392505050565b600082601f83011261049557610494610368565b5b81356104a584826020860161043e565b91505092915050565b6000819050919050565b6104c1816104ae565b81146104cc57600080fd5b50565b6000813590506104de816104b8565b92915050565b60008060008060008060c087890312156105015761050061035e565b5b600087013567ffffffffffffffff81111561051f5761051e610363565b5b61052b89828a01610480565b965050602087013567ffffffffffffffff81111561054c5761054b610363565b5b61055889828a01610480565b955050604087013567ffffffffffffffff81111561057957610578610363565b5b61058589828a01610480565b945050606061059689828a016104cf565b93505060806105a789828a016104cf565b92505060a087013567ffffffffffffffff8111156105c8576105c7610363565b5b6105d489828a01610480565b9150509295509295509295565b600081519050919050565b600082825260208201905092915050565b6000819050602082019050919050565b600073ffffffffffffffffffffffffffffffffffffffff82169050919050565b6000819050919050565b600061065261064d6106488461060d565b61062d565b61060d565b9050919050565b600061066482610637565b9050919050565b600061067682610659565b9050919050565b6106868161066b565b82525050565b6000610698838361067d565b60208301905092915050565b6000602082019050919050565b60006106bc826105e1565b6106c681856105ec565b93506106d1836105fd565b8060005b838110156107025781516106e9888261068c565b97506106f4836106a4565b9250506001810190506106d5565b5085935050505092915050565b6000602082019050818103600083015261072981846106b1565b905092915050565b600081519050919050565b600082825260208201905092915050565b60005b8381101561076b578082015181840152602081019050610750565b60008484015250505050565b600061078282610731565b61078c818561073c565b935061079c81856020860161074d565b6107a581610372565b840191505092915050565b6107b9816104ae565b82525050565b60006107ca8261060d565b9050919050565b6107da816107bf565b82525050565b600060e08201905081810360008301526107fa818a610777565b9050818103602083015261080e8189610777565b905081810360408301526108228188610777565b905061083160608301876107b0565b61083e60808301866107b0565b81810360a08301526108508185610777565b905061085f60c08301846107d1565b9897505050505050505056fe608060405234801561001057600080fd5b506040516138c43803806138c48339818101604052810190610032919061036a565b80600960006101000a81548173ffffffffffffffffffffffffffffffffffffffff021916908373ffffffffffffffffffffffffffffffffffffffff16021790555086600190816100829190610693565b5085600290816100929190610693565b5060008551116100d7576040518060400160405280600781526020017f64656661756c74000000000000000000000000000000000000000000000000008152506100d9565b845b600390816100e79190610693565b50836000819055506000600481905550426006819055508260065461010c9190610794565b6005819055506000600d60006101000a81548160ff02191690836003811115610138576101376107c8565b5b0217905550600060078190555081600890816101549190610693565b50505050505050506107f7565b6000604051905090565b600080fd5b600080fd5b600080fd5b600080fd5b6000601f19601f8301169050919050565b7f4e487b7100000000000000000000000000000000000000000000000000000000600052604160045260246000fd5b6101c88261017f565b810181811067ffffffffffffffff821117156101e7576101e6610190565b5b80604052505050565b60006101fa610161565b905061020682826101bf565b919050565b600067ffffffffffffffff82111561022657610225610190565b5b61022f8261017f565b9050602081019050919050565b60005b8381101561025a57808201518184015260208101905061023f565b60008484015250505050565b60006102796102748461020b565b6101f0565b9050828152602081018484840111156102955761029461017a565b5b6102a084828561023c565b509392505050565b600082601f8301126102bd576102bc610175565b5b81516102cd848260208601610266565b91505092915050565b6000819050919050565b6102e9816102d6565b81146102f457600080fd5b50565b600081519050610306816102e0565b92915050565b600073ffffffffffffffffffffffffffffffffffffffff82169050919050565b60006103378261030c565b9050919050565b6103478161032c565b811461035257600080fd5b50565b6000815190506103648161033e565b92915050565b600080600080600080600060e0888a0312156103895761038861016b565b5b600088015167ffffffffffffffff8111156103a7576103a6610170565b5b6103b38a828b016102a8565b975050602088015167ffffffffffffffff8111156103d4576103d3610170565b5b6103e08a828b016102a8565b965050604088015167ffffffffffffffff81111561040157610400610170565b5b61040d8a828b016102a8565b955050606061041e8a828b016102f7565b945050608061042f8a828b016102f7565b93505060a088015167ffffffffffffffff8111156104505761044f610170565b5b61045c8a828b016102a8565b92505060c061046d8a828b01610355565b91505092959891949750929550565b600081519050919050565b7f4e487b7100000000000000000000000000000000000000000000000000000000600052602260045260246000fd5b600060028204905060018216806104ce57607f821691505b6020821081036104e1576104e0610487565b5b50919050565b60008190508160005260206000209050919050565b60006020601f8301049050919050565b600082821b905092915050565b6000600883026105497fffffffffffffffffffffffffffffffffffffffffffffffffffffffffffffffff8261050c565b610553868361050c565b95508019841693508086168417925050509392505050565b6000819050919050565b600061059061058b610586846102d6565b61056b565b6102d6565b9050919050565b6000819050919050565b6105aa83610575565b6105be6105b682610597565b848454610519565b825550505050565b600090565b6105d36105c6565b6105de8184846105a1565b505050565b5b81811015610602576105f76000826105cb565b6001810190506105e4565b5050565b601f82111561064757610618816104e7565b610621846104fc565b81016020851015610630578190505b61064461063c856104fc565b8301826105e3565b50505b505050565b600082821c905092915050565b600061066a6000198460080261064c565b1980831691505092915050565b60006106838383610659565b9150826002028217905092915050565b61069c8261047c565b67ffffffffffffffff8111156106b5576106b4610190565b5b6106bf82546104b6565b6106ca828285610606565b600060209050601f8311600181146106fd57600084156106eb578287015190505b6106f58582610677565b86555061075d565b601f19841661070b866104e7565b60005b828110156107335784890151825560018201915060208501945060208101905061070e565b86831015610750578489015161074c601f891682610659565b8355505b6001600288020188555050505b505050505050565b7f4e487b7100000000000000000000000000000000000000000000000000000000600052601160045260246000fd5b600061079f826102d6565b91506107aa836102d6565b92508282019050808211156107c2576107c1610765565b5b92915050565b7f4e487b7100000000000000000000000000000000000000000000000000000000600052602160045260246000fd5b6130be806108066000396000f3fe6080604052600436106101405760003560e01c806381d12c58116100b6578063cc0fe4a41161006f578063cc0fe4a414610434578063cde9f2ea14610474578063d3f29ace1461049f578063d9d29726146104c8578063dba88bc2146104f1578063f0e8885c1461051c57610140565b806381d12c58146103405780638da5cb5b14610380578063a29481a4146103ab578063af157c19146103d4578063b60d4288146103ff578063c71c0b401461040957610140565b806340193883116101085780634019388314610240578063420714bd1461026b57806342e94c9014610296578063590e1ae3146102d35780636cefb270146102ea5780637284e4161461031557610140565b806306fdde031461014557806312065fe01461017057806319a32cb91461019b578063200d2ed2146101d85780633cb5d10014610203575b600080fd5b34801561015157600080fd5b5061015a610547565b6040516101679190611f8f565b60405180910390f35b34801561017c57600080fd5b506101856105d5565b6040516101929190611fca565b60405180910390f35b3480156101a757600080fd5b506101c260048036038101906101bd9190612083565b6105dd565b6040516101cf91906120df565b60405180910390f35b3480156101e457600080fd5b506101ed6106b0565b6040516101fa9190612171565b60405180910390f35b34801561020f57600080fd5b5061022a6004803603810190610225919061218c565b6106c3565b60405161023791906121c8565b60405180910390f35b34801561024c57600080fd5b50610255610702565b6040516102629190611fca565b60405180910390f35b34801561027757600080fd5b50610280610708565b60405161028d9190611fca565b60405180910390f35b3480156102a257600080fd5b506102bd60048036038101906102b891906121e3565b61070e565b6040516102ca9190611fca565b60405180910390f35b3480156102df57600080fd5b506102e8610726565b005b3480156102f657600080fd5b506102ff610a4c565b60405161030c9190611f8f565b60405180910390f35b34801561032157600080fd5b5061032a610ada565b6040516103379190611f8f565b60405180910390f35b34801561034c57600080fd5b506103676004803603810190610362919061218c565b610b68565b6040516103779493929190612258565b60405180910390f35b34801561038c57600080fd5b50610395610c3d565b6040516103a291906122c5565b60405180910390f35b3480156103b757600080fd5b506103d260048036038101906103cd9190612415565b610c63565b005b3480156103e057600080fd5b506103e9610f82565b6040516103f69190612542565b60405180910390f35b610407611010565b005b34801561041557600080fd5b5061041e611266565b60405161042b9190611fca565b60405180910390f35b34801561044057600080fd5b5061045b6004803603810190610456919061218c565b61126c565b60405161046b9493929190612564565b60405180910390f35b34801561048057600080fd5b506104896113ae565b6040516104969190611fca565b60405180910390f35b3480156104ab57600080fd5b506104c660048036038101906104c191906125dc565b6113b4565b005b3480156104d457600080fd5b506104ef60048036038101906104ea919061261c565b611703565b005b3480156104fd57600080fd5b506105066117d1565b6040516105139190611f8f565b60405180910390f35b34801561052857600080fd5b5061053161185f565b60405161053e9190611fca565b60405180910390f35b6001805461055490612678565b80601f016020809104026020016040519081016040528092919081815260200182805461058090612678565b80156105cd5780601f106105a2576101008083540402835291602001916105cd565b820191906000526020600020905b8154815290600101906020018083116105b057829003601f168201915b505050505081565b600047905090565b6000600c805490508310610626576040517f08c379a000000000000000000000000000000000000000000000000000000000815260040161061d906126f5565b60405180910390fd5b600c838154811061063a57610639612715565b5b906000526020600020906005020160020160008373ffffffffffffffffffffffffffffffffffffffff1673ffffffffffffffffffffffffffffffffffffffff16815260200190815260200160002060009054906101000a900460ff1660028111156106a8576106a76120fa565b5b905092915050565b600d60009054906101000a900460ff1681565b600a81815481106106d357600080fd5b906000526020600020016000915054906101000a900473ffffffffffffffffffffffffffffffffffffffff1681565b60005481565b60075481565b600b6020528060005260406000206000915090505481565b6000600a80549050905060008167ffffffffffffffff81111561074c5761074b6122ea565b5b60405190808252806020026020018201604052801561077a5781602001602082028036833780820191505090505b50905060008267ffffffffffffffff811115610799576107986122ea565b5b6040519080825280602002602001820160405280156107c75781602001602082028036833780820191505090505b50905060005b8381101561092357600a81815481106107e9576107e8612715565b5b9060005260206000200160009054906101000a900473ffffffffffffffffffffffffffffffffffffffff1683828151811061082757610826612715565b5b602002602001019073ffffffffffffffffffffffffffffffffffffffff16908173ffffffffffffffffffffffffffffffffffffffff168152505060045447600b6000600a858154811061087d5761087c612715565b5b9060005260206000200160009054906101000a900473ffffffffffffffffffffffffffffffffffffffff1673ffffffffffffffffffffffffffffffffffffffff1673ffffffffffffffffffffffffffffffffffffffff168152602001908152602001600020546108ed9190612773565b6108f791906127e4565b82828151811061090a57610909612715565b5b60200260200101818152505080806001019150506107cd565b5060005b83811015610a3857600082828151811061094457610943612715565b5b60200260200101511115610a2b5782818151811061096557610964612715565b5b602002602001015173ffffffffffffffffffffffffffffffffffffffff166108fc83838151811061099957610998612715565b5b60200260200101519081150290604051600060405180830381858888f193505050501580156109cc573d6000803e3d6000fd5b50600b60008483815181106109e4576109e3612715565b5b602002602001015173ffffffffffffffffffffffffffffffffffffffff1673ffffffffffffffffffffffffffffffffffffffff168152602001908152602001600020600090555b8080600101915050610927565b50600a6000610a479190611eb7565b505050565b60088054610a5990612678565b80601f0160208091040260200160405190810160405280929190818152602001828054610a8590612678565b8015610ad25780601f10610aa757610100808354040283529160200191610ad2565b820191906000526020600020905b815481529060010190602001808311610ab557829003601f168201915b505050505081565b60028054610ae790612678565b80601f0160208091040260200160405190810160405280929190818152602001828054610b1390612678565b8015610b605780601f10610b3557610100808354040283529160200191610b60565b820191906000526020600020905b815481529060010190602001808311610b4357829003601f168201915b505050505081565b600c8181548110610b7857600080fd5b90600052602060002090600502016000915090508060000154908060010160009054906101000a900460ff1690806003015490806004018054610bba90612678565b80601f0160208091040260200160405190810160405280929190818152602001828054610be690612678565b8015610c335780601f10610c0857610100808354040283529160200191610c33565b820191906000526020600020905b815481529060010190602001808311610c1657829003601f168201915b5050505050905084565b600960009054906101000a900473ffffffffffffffffffffffffffffffffffffffff1681565b8247811115610ca7576040517f08c379a0000000000000000000000000000000000000000000000000000000008152600401610c9e90612861565b60405180910390fd5b60005b600754811015610d5957600280811115610cc757610cc66120fa565b5b600c8281548110610cdb57610cda612715565b5b906000526020600020906005020160010160009054906101000a900460ff166002811115610d0c57610d0b6120fa565b5b03610d4c576040517f08c379a0000000000000000000000000000000000000000000000000000000008152600401610d43906128f3565b60405180910390fd5b8080600101915050610caa565b50600960009054906101000a900473ffffffffffffffffffffffffffffffffffffffff1673ffffffffffffffffffffffffffffffffffffffff168273ffffffffffffffffffffffffffffffffffffffff1614610dea576040517f08c379a0000000000000000000000000000000000000000000000000000000008152600401610de19061295f565b60405180910390fd5b6000600c600181600181540180825580915050039060005260206000209060050201905060076000815480929190610e219061297f565b9190505550610e646040518060400160405280600281526020017f6868000000000000000000000000000000000000000000000000000000000000815250611865565b42816000018190555060028160010160006101000a81548160ff02191690836002811115610e9557610e946120fa565b5b021790555084816003018190555083816004019081610eb49190612b73565b5060005b600a80549050811015610f7a576002826002016000600a8481548110610ee157610ee0612715565b5b9060005260206000200160009054906101000a900473ffffffffffffffffffffffffffffffffffffffff1673ffffffffffffffffffffffffffffffffffffffff1673ffffffffffffffffffffffffffffffffffffffff16815260200190815260200160002060006101000a81548160ff02191690836002811115610f6857610f676120fa565b5b02179055508080600101915050610eb8565b505050505050565b6060600a80548060200260200160405190810160405280929190818152602001828054801561100657602002820191906000526020600020905b8160009054906101000a900473ffffffffffffffffffffffffffffffffffffffff1673ffffffffffffffffffffffffffffffffffffffff1681526020019060010190808311610fbc575b5050505050905090565b60006003811115611024576110236120fa565b5b600d60009054906101000a900460ff166003811115611046576110456120fa565b5b14611086576040517f08c379a000000000000000000000000000000000000000000000000000000000815260040161107d90612cb7565b60405180910390fd5b6004546000546110969190612cd7565b3411156110b16004546000546110ac9190612cd7565b6118fe565b6040516020016110c19190612db9565b60405160208183030381529060405290611111576040517f08c379a00000000000000000000000000000000000000000000000000000000081526004016111089190611f8f565b60405180910390fd5b5060003403611155576040517f08c379a000000000000000000000000000000000000000000000000000000000815260040161114c90612e27565b60405180910390fd5b60001515611162336119cc565b1515036111cd57600a339080600181540180825580915050600190039060005260206000200160009091909190916101000a81548173ffffffffffffffffffffffffffffffffffffffff021916908373ffffffffffffffffffffffffffffffffffffffff1602179055505b34600b60003373ffffffffffffffffffffffffffffffffffffffff1673ffffffffffffffffffffffffffffffffffffffff168152602001908152602001600020600082825461121c9190612e47565b9250508190555034600460008282546112359190612e47565b9250508190555060005460045403611264576112636001600381111561125e5761125d6120fa565b5b611703565b5b565b60045481565b60008060006060600c8054905085106112ba576040517f08c379a00000000000000000000000000000000000000000000000000000000081526004016112b1906126f5565b60405180910390fd5b6000600c86815481106112d0576112cf612715565b5b9060005260206000209060050201905080600001548160010160009054906101000a900460ff166002811115611309576113086120fa565b5b82600301548360040180805461131e90612678565b80601f016020809104026020016040519081016040528092919081815260200182805461134a90612678565b80156113975780601f1061136c57610100808354040283529160200191611397565b820191906000526020600020905b81548152906001019060200180831161137a57829003601f168201915b505050505090509450945094509450509193509193565b60065481565b6002808111156113c7576113c66120fa565b5b600c82815481106113db576113da612715565b5b906000526020600020906005020160010160009054906101000a900460ff16600281111561140c5761140b6120fa565b5b1461144c576040517f08c379a000000000000000000000000000000000000000000000000000000000815260040161144390612ec7565b60405180910390fd5b60028081111561145f5761145e6120fa565b5b600c828154811061147357611472612715565b5b906000526020600020906005020160020160003373ffffffffffffffffffffffffffffffffffffffff1673ffffffffffffffffffffffffffffffffffffffff16815260200190815260200160002060009054906101000a900460ff1660028111156114e1576114e06120fa565b5b14611521576040517f08c379a000000000000000000000000000000000000000000000000000000000815260040161151890612f33565b60405180910390fd5b6000600b60003373ffffffffffffffffffffffffffffffffffffffff1673ffffffffffffffffffffffffffffffffffffffff16815260200190815260200160002054116115a3576040517f08c379a000000000000000000000000000000000000000000000000000000000815260040161159a90612f9f565b60405180910390fd5b8160ff1660028111156115b9576115b86120fa565b5b600c82815481106115cd576115cc612715565b5b906000526020600020906005020160020160003373ffffffffffffffffffffffffffffffffffffffff1673ffffffffffffffffffffffffffffffffffffffff16815260200190815260200160002060006101000a81548160ff0219169083600281111561163d5761163c6120fa565b5b021790555061164b81611a74565b600c828154811061165f5761165e612715565b5b906000526020600020906005020160010160006101000a81548160ff02191690836002811115611692576116916120fa565b5b0217905550600060028111156116ab576116aa6120fa565b5b600c82815481106116bf576116be612715565b5b906000526020600020906005020160010160009054906101000a900460ff1660028111156116f0576116ef6120fa565b5b036116ff576116fe81611c8d565b5b5050565b60008160ff16600381111561171b5761171a6120fa565b5b90506003808111156117305761172f6120fa565b5b816003811115611743576117426120fa565b5b036117a357600960009054906101000a900473ffffffffffffffffffffffffffffffffffffffff1673ffffffffffffffffffffffffffffffffffffffff163373ffffffffffffffffffffffffffffffffffffffff16146117a257600080fd5b5b80600d60006101000a81548160ff021916908360038111156117c8576117c76120fa565b5b02179055505050565b600380546117de90612678565b80601f016020809104026020016040519081016040528092919081815260200182805461180a90612678565b80156118575780601f1061182c57610100808354040283529160200191611857565b820191906000526020600020905b81548152906001019060200180831161183a57829003601f168201915b505050505081565b60055481565b6118fb816040516024016118799190611f8f565b6040516020818303038152906040527f41304fac000000000000000000000000000000000000000000000000000000007bffffffffffffffffffffffffffffffffffffffffffffffffffffffff19166020820180517bffffffffffffffffffffffffffffffffffffffffffffffffffffffff8381831617835250505050611d1e565b50565b60606000600161190d84611d38565b01905060008167ffffffffffffffff81111561192c5761192b6122ea565b5b6040519080825280601f01601f19166020018201604052801561195e5781602001600182028036833780820191505090505b509050600082602001820190505b6001156119c1578080600190039150507f3031323334353637383961626364656600000000000000000000000000000000600a86061a8153600a85816119b5576119b46127b5565b5b0494506000850361196c575b819350505050919050565b6000806000905060005b600a80549050811015611a6a578373ffffffffffffffffffffffffffffffffffffffff16600a8281548110611a0e57611a0d612715565b5b9060005260206000200160009054906101000a900473ffffffffffffffffffffffffffffffffffffffff1673ffffffffffffffffffffffffffffffffffffffff1603611a5d5760019150611a6a565b80806001019150506119d6565b5080915050919050565b600080600090506000805b600a80549050811015611c7557600280811115611a9f57611a9e6120fa565b5b600c8681548110611ab357611ab2612715565b5b90600052602060002090600502016002016000600a8481548110611ada57611ad9612715565b5b9060005260206000200160009054906101000a900473ffffffffffffffffffffffffffffffffffffffff1673ffffffffffffffffffffffffffffffffffffffff1673ffffffffffffffffffffffffffffffffffffffff16815260200190815260200160002060009054906101000a900460ff166002811115611b5f57611b5e6120fa565b5b03611b6d5760029250611c75565b60006002811115611b8157611b806120fa565b5b600c8681548110611b9557611b94612715565b5b90600052602060002090600502016002016000600a8481548110611bbc57611bbb612715565b5b9060005260206000200160009054906101000a900473ffffffffffffffffffffffffffffffffffffffff1673ffffffffffffffffffffffffffffffffffffffff1673ffffffffffffffffffffffffffffffffffffffff16815260200190815260200160002060009054906101000a900460ff166002811115611c4157611c406120fa565b5b03611c59578180611c5190612fc9565b925050611c68565b8180611c6490613011565b9250505b8080600101915050611a7f565b5060008113611c8357600191505b8192505050919050565b600960009054906101000a900473ffffffffffffffffffffffffffffffffffffffff1673ffffffffffffffffffffffffffffffffffffffff166108fc600c8381548110611cdd57611cdc612715565b5b9060005260206000209060050201600301549081150290604051600060405180830381858888f19350505050158015611d1a573d6000803e3d6000fd5b5050565b611d3581611d2d611e8b611eac565b63ffffffff16565b50565b600080600090507a184f03e93ff9f4daa797ed6e38ed64bf6a1f0100000000000000008310611d96577a184f03e93ff9f4daa797ed6e38ed64bf6a1f0100000000000000008381611d8c57611d8b6127b5565b5b0492506040810190505b6d04ee2d6d415b85acef81000000008310611dd3576d04ee2d6d415b85acef81000000008381611dc957611dc86127b5565b5b0492506020810190505b662386f26fc100008310611e0257662386f26fc100008381611df857611df76127b5565b5b0492506010810190505b6305f5e1008310611e2b576305f5e1008381611e2157611e206127b5565b5b0492506008810190505b6127108310611e50576127108381611e4657611e456127b5565b5b0492506004810190505b60648310611e735760648381611e6957611e686127b5565b5b0492506002810190505b600a8310611e82576001810190505b80915050919050565b60006a636f6e736f6c652e6c6f679050600080835160208501845afa505050565b611ed8819050919050565b5080546000825590600052602060002090810190611ed59190611ee2565b50565b611ee0613059565b565b5b80821115611efb576000816000905550600101611ee3565b5090565b600081519050919050565b600082825260208201905092915050565b60005b83811015611f39578082015181840152602081019050611f1e565b60008484015250505050565b6000601f19601f8301169050919050565b6000611f6182611eff565b611f6b8185611f0a565b9350611f7b818560208601611f1b565b611f8481611f45565b840191505092915050565b60006020820190508181036000830152611fa98184611f56565b905092915050565b6000819050919050565b611fc481611fb1565b82525050565b6000602082019050611fdf6000830184611fbb565b92915050565b6000604051905090565b600080fd5b600080fd5b61200281611fb1565b811461200d57600080fd5b50565b60008135905061201f81611ff9565b92915050565b600073ffffffffffffffffffffffffffffffffffffffff82169050919050565b600061205082612025565b9050919050565b61206081612045565b811461206b57600080fd5b50565b60008135905061207d81612057565b92915050565b6000806040838503121561209a57612099611fef565b5b60006120a885828601612010565b92505060206120b98582860161206e565b9150509250929050565b600060ff82169050919050565b6120d9816120c3565b82525050565b60006020820190506120f460008301846120d0565b92915050565b7f4e487b7100000000000000000000000000000000000000000000000000000000600052602160045260246000fd5b6004811061213a576121396120fa565b5b50565b600081905061214b82612129565b919050565b600061215b8261213d565b9050919050565b61216b81612150565b82525050565b60006020820190506121866000830184612162565b92915050565b6000602082840312156121a2576121a1611fef565b5b60006121b084828501612010565b91505092915050565b6121c281612045565b82525050565b60006020820190506121dd60008301846121b9565b92915050565b6000602082840312156121f9576121f8611fef565b5b60006122078482850161206e565b91505092915050565b60038110612221576122206120fa565b5b50565b600081905061223282612210565b919050565b600061224282612224565b9050919050565b61225281612237565b82525050565b600060808201905061226d6000830187611fbb565b61227a6020830186612249565b6122876040830185611fbb565b81810360608301526122998184611f56565b905095945050505050565b60006122af82612025565b9050919050565b6122bf816122a4565b82525050565b60006020820190506122da60008301846122b6565b92915050565b600080fd5b600080fd5b7f4e487b7100000000000000000000000000000000000000000000000000000000600052604160045260246000fd5b61232282611f45565b810181811067ffffffffffffffff82111715612341576123406122ea565b5b80604052505050565b6000612354611fe5565b90506123608282612319565b919050565b600067ffffffffffffffff8211156123805761237f6122ea565b5b61238982611f45565b9050602081019050919050565b82818337600083830152505050565b60006123b86123b384612365565b61234a565b9050828152602081018484840111156123d4576123d36122e5565b5b6123df848285612396565b509392505050565b600082601f8301126123fc576123fb6122e0565b5b813561240c8482602086016123a5565b91505092915050565b60008060006060848603121561242e5761242d611fef565b5b600061243c86828701612010565b935050602084013567ffffffffffffffff81111561245d5761245c611ff4565b5b612469868287016123e7565b925050604061247a8682870161206e565b9150509250925092565b600081519050919050565b600082825260208201905092915050565b6000819050602082019050919050565b6124b981612045565b82525050565b60006124cb83836124b0565b60208301905092915050565b6000602082019050919050565b60006124ef82612484565b6124f9818561248f565b9350612504836124a0565b8060005b8381101561253557815161251c88826124bf565b9750612527836124d7565b925050600181019050612508565b5085935050505092915050565b6000602082019050818103600083015261255c81846124e4565b905092915050565b60006080820190506125796000830187611fbb565b61258660208301866120d0565b6125936040830185611fbb565b81810360608301526125a58184611f56565b905095945050505050565b6125b9816120c3565b81146125c457600080fd5b50565b6000813590506125d6816125b0565b92915050565b600080604083850312156125f3576125f2611fef565b5b6000612601858286016125c7565b925050602061261285828601612010565b9150509250929050565b60006020828403121561263257612631611fef565b5b6000612640848285016125c7565b91505092915050565b7f4e487b7100000000000000000000000000000000000000000000000000000000600052602260045260246000fd5b6000600282049050600182168061269057607f821691505b6020821081036126a3576126a2612649565b5b50919050565b7f496e76616c6964207265717565737420696e6465780000000000000000000000600082015250565b60006126df601583611f0a565b91506126ea826126a9565b602082019050919050565b6000602082019050818103600083015261270e816126d2565b9050919050565b7f4e487b7100000000000000000000000000000000000000000000000000000000600052603260045260246000fd5b7f4e487b7100000000000000000000000000000000000000000000000000000000600052601160045260246000fd5b600061277e82611fb1565b915061278983611fb1565b925082820261279781611fb1565b915082820484148315176127ae576127ad612744565b5b5092915050565b7f4e487b7100000000000000000000000000000000000000000000000000000000600052601260045260246000fd5b60006127ef82611fb1565b91506127fa83611fb1565b92508261280a576128096127b5565b5b828204905092915050565b7f4e6f7420656e6f7567682066756e647320617661696c61626c65000000000000600082015250565b600061284b601a83611f0a565b915061285682612815565b602082019050919050565b6000602082019050818103600083015261287a8161283e565b9050919050565b7f5468657265206172652070656e64696e67207769746864726177616c2072657160008201527f7565737473000000000000000000000000000000000000000000000000000000602082015250565b60006128dd602583611f0a565b91506128e882612881565b604082019050919050565b6000602082019050818103600083015261290c816128d0565b9050919050565b7f4f6e6c7920617661696c61626c6520666f7220746865206f776e657200000000600082015250565b6000612949601c83611f0a565b915061295482612913565b602082019050919050565b600060208201905081810360008301526129788161293c565b9050919050565b600061298a82611fb1565b91507fffffffffffffffffffffffffffffffffffffffffffffffffffffffffffffffff82036129bc576129bb612744565b5b600182019050919050565b60008190508160005260206000209050919050565b60006020601f8301049050919050565b600082821b905092915050565b600060088302612a297fffffffffffffffffffffffffffffffffffffffffffffffffffffffffffffffff826129ec565b612a3386836129ec565b95508019841693508086168417925050509392505050565b6000819050919050565b6000612a70612a6b612a6684611fb1565b612a4b565b611fb1565b9050919050565b6000819050919050565b612a8a83612a55565b612a9e612a9682612a77565b8484546129f9565b825550505050565b600090565b612ab3612aa6565b612abe818484612a81565b505050565b5b81811015612ae257612ad7600082612aab565b600181019050612ac4565b5050565b601f821115612b2757612af8816129c7565b612b01846129dc565b81016020851015612b10578190505b612b24612b1c856129dc565b830182612ac3565b50505b505050565b600082821c905092915050565b6000612b4a60001984600802612b2c565b1980831691505092915050565b6000612b638383612b39565b9150826002028217905092915050565b612b7c82611eff565b67ffffffffffffffff811115612b9557612b946122ea565b5b612b9f8254612678565b612baa828285612ae6565b600060209050601f831160018114612bdd5760008415612bcb578287015190505b612bd58582612b57565b865550612c3d565b601f198416612beb866129c7565b60005b82811015612c1357848901518255600182019150602085019450602081019050612bee565b86831015612c305784890151612c2c601f891682612b39565b8355505b6001600288020188555050505b505050505050565b7f546869732063616d706169676e2063616e27742061636365707420646f6e617460008201527f696f6e7300000000000000000000000000000000000000000000000000000000602082015250565b6000612ca1602483611f0a565b9150612cac82612c45565b604082019050919050565b60006020820190508181036000830152612cd081612c94565b9050919050565b6000612ce282611fb1565b9150612ced83611fb1565b9250828203905081811115612d0557612d04612744565b5b92915050565b600081905092915050565b7f446f6e6174696f6e732073686f756c64206265206c657373207468616e206f7260008201527f20657175616c20746f2000000000000000000000000000000000000000000000602082015250565b6000612d72602a83612d0b565b9150612d7d82612d16565b602a82019050919050565b6000612d9382611eff565b612d9d8185612d0b565b9350612dad818560208601611f1b565b80840191505092915050565b6000612dc482612d65565b9150612dd08284612d88565b915081905092915050565b7f496e76616c696420646f6e6174696f6e00000000000000000000000000000000600082015250565b6000612e11601083611f0a565b9150612e1c82612ddb565b602082019050919050565b60006020820190508181036000830152612e4081612e04565b9050919050565b6000612e5282611fb1565b9150612e5d83611fb1565b9250828201905080821115612e7557612e74612744565b5b92915050565b7f566f7465732068617665206265656e20636c6f73656400000000000000000000600082015250565b6000612eb1601683611f0a565b9150612ebc82612e7b565b602082019050919050565b60006020820190508181036000830152612ee081612ea4565b9050919050565b7f416c726561647920766f74656400000000000000000000000000000000000000600082015250565b6000612f1d600d83611f0a565b9150612f2882612ee7565b602082019050919050565b60006020820190508181036000830152612f4c81612f10565b9050919050565b7f4f6e6c7920636f6e7472696275746f72732063616e20766f7465000000000000600082015250565b6000612f89601a83611f0a565b9150612f9482612f53565b602082019050919050565b60006020820190508181036000830152612fb881612f7c565b9050919050565b6000819050919050565b6000612fd482612fbf565b91507f7fffffffffffffffffffffffffffffffffffffffffffffffffffffffffffffff820361300657613005612744565b5b600182019050919050565b600061301c82612fbf565b91507f8000000000000000000000000000000000000000000000000000000000000000820361304e5761304d612744565b5b600182039050919050565b7f4e487b7100000000000000000000000000000000000000000000000000000000600052605160045260246000fdfea2646970667358221220989b54ee72cb8dba503ecb1c12f1e8d2358f5c6431df108740c4f069ab9f741364736f6c634300081c0033a2646970667358221220acea7e85f760fbef42155aa55e75841acb2cb42abb960bb46ba98e419b44c43464736f6c634300081c0033",
  "linkReferences": {},
  "deployedLinkReferences": {}
}